:04000000DDEF00F040
:100008005182FACF04F0FBCF05F0D9CF06F0DACF52
:1000180007F0F3CF08F0F4CF09F0F6CF0AF0F7CFE6
:100028000BF0F8CF0CF0F5CF0DF0F2AC1EEF00F0AE
:1000380020EF00F0C7EF00F00E012CAD26EF00F026
:1000480028EF00F03FEF00F036AD2DEF00F02FEF76
:1000580000F03FEF00F002D83DEF00F00500FA6E27
:100068000001FC51FD6EFD51FE6EFE51FF6EFA500F
:100078001200C7EF00F02CAF44EF00F046EF00F09D
:100088005DEF00F036AF4BEF00F04DEF00F05DEFA5
:1000980000F002D85BEF00F00500FA6E0001F9519C
:1000A800FD6EFA51FE6EFB51FF6EFA501200C7EF5B
:1000B80000F02DA162EF00F064EF00F07BEF00F09C
:1000C80037A169EF00F06BEF00F07BEF00F002D88A
:1000D80079EF00F00500FA6E0001ED51FD6EEE516A
:1000E800FE6EEF51FF6EFA501200C7EF00F02DA31D
:1000F80080EF00F082EF00F099EF00F037A387EF70
:1001080000F089EF00F099EF00F002D897EF00F0C7
:100118000500FA6E0001EA51FD6EEB51FE6EEC51DE
:10012800FF6EFA501200C7EF00F02CA79EEF00F008
:10013800A0EF00F0B7EF00F036A7A5EF00F0A7EFAB
:1001480000F0B7EF00F002D8B5EF00F00500FA6E46
:100158000001BA51FD6EBB51FE6EBC51FF6EFA50E4
:100168001200C7EF00F02CA5BCEF00F0BEEF00F0C6
:10017800C7EF00F036A5C3EF00F0C5EF00F0C7EFFA
:1001880000F0A7EF00F00DC0F5FF0CC0F8FF0BC0A2
:10019800F7FF0AC0F6FF09C0F4FF08C0F3FF07C065
:1001A800DAFF06C0D9FF05C0FBFF04C0FAFF519271
:0601B800110060EF10F0E1
:100E000000B62300F42200E42200161400D01700DC
:100E1000AA2300381B00042400FC2300F42300EC68
:100E20002300E42300DC2300D423009E23008E1D36
:100E300000416C697665203D202575200A200D0053
:0F0E400044617461203D202575200A200D0000BB
:100E50000001C0BF36EF07F0C05106E1BF05D8B0B2
:100E600034EF07F036EF07F03CEF07F0000EC46FE9
:100E7000010EC36F40EF07F0BFC0C3F0C0C0C4F0A5
:100E8000BDC0C1F0BEC0C2F02DC0C5F02EC0C6F0BE
:100E90002FC0C7F030C0C8F031C0C9F032C0CAF0AE
:100EA00033C0CBF034C0CCF0000ECE6F1F0ECD6F30
:100EB000000E01011F6FD4EF07F0CD07D8A0CE07B9
:100EC000000ECD25D96E010ECE21DA6EC5C00EF012
:100ED000C6C00FF0C7C010F0C8C011F0C9C012F0F2
:100EE000CAC013F0CBC014F0CCC015F00A0E166EB9
:100EF000000E176E000E186E000E196E000E1A6EA0
:100F0000000E1B6E000E1C6E000E1D6E3DEC09F0F7
:100F10000EC035F00FC036F010C037F011C038F0F9
:100F200012C039F013C03AF014C03BF015C03CF0C9
:100F30003550300FDF6E0001C307D8A0C407C107CA
:100F4000D8A0C207C5C00EF0C6C00FF0C7C010F0D1
:100F5000C8C011F0C9C012F0CAC013F0CBC014F061
:100F6000CCC015F00A0E166E000E176E000E186E2D
:100F7000000E196E000E1A6E000E1B6E000E1C6E17
:100F8000000E1D6EC5EC08F00EC0C5F00FC0C6F017
:100F900010C0C7F011C0C8F012C0C9F013C0CAF029
:100FA00014C0CBF015C0CCF00001CD51CE11D8B497
:100FB000DCEF07F0DEEF07F0FAEF07F0C551C611DE
:100FC000C711C811C911CA11CB11CC11D8A4EBEFAC
:100FD00007F0EDEF07F05DEF07F0C4BFFAEF07F0A1
:100FE000C45106E1C305D8B0F8EF07F0FAEF07F0F7
:100FF0005DEF07F02BC020F02CC021F0000ECD25B6
:10100000226E010ECE21236EC1C024F0C2C025F095
:1010100019EC0EF012003FC0D9FF40C0DAFFDECF5E
:10102000F6FFDDCFF7FF000EF86E0800F550250A39
:10103000D8A41DEF08F01FEF08F0AEEF08F03FC096
:10104000D9FF40C0DAFFDE2A000EDD22000E0001CB
:10105000BE6F000EBD6FBDC043F0BF69C0693FC029
:10106000D9FF40C0DAFFDECFDBF0DDCFDCF0DBC044
:10107000F6FFDCC0F7FF000EF86E0800F550750AA9
:10108000D8A445EF08F047EF08F0A5EF08F041C0FD
:10109000D9FF42C0DAFFDFCFCFF0020EDE26DFCF6E
:1010A000D0F0000EDD22CFC0D9FFD0C0DAFFDECFF6
:1010B000D1F0DDCFD2F0D1C0D3F0D2C0D4F0D56B17
:1010C000D66BD76BD86BD96BDA6B010EDB25CF6F84
:1010D000000EDC21D06F3FC0D9FF40C0DAFFCFC087
:1010E000DEFFD0C0DDFF8DEF08F03DC02BF03EC02D
:1010F0002CF0D3C02DF0D4C02EF0D5C02FF0D6C028
:1011000030F0D7C031F0D8C032F0D9C033F0DAC0F7
:1011100034F028EC07F0C4EF08F0DBC0F6FFDCC0C9
:10112000F7FF000EF86E0800F550CF6FD06BD0516E
:10113000000AD8B49EEF08F0A5EF08F0CF51750A69
:10114000D8B475EF08F0A5EF08F03FC0D9FF40C054
:10115000DAFFDE2A000EDD22C4EF08F03FC0D9FF1F
:1011600040C0DAFFDECFF6FFDDCFF7FF000EF86EEE
:101170000800F550106E116A3DC012F03EC013F029
:101180003CEC0CF0A5EF08F0120020EE1EF0070E6C
:10119000DE6AE806FDE216501710181019101A1032
:1011A0001B101C101D10D8B4D8EF08F0DAEF08F0AF
:1011B0002CEF09F0010E266EE8EF08F0D8901636F5
:1011C0001736183619361A361B361C361D36262A9F
:1011D0001DAEEDEF08F0EFEF08F0DEEF08F0D8906D
:1011E0001E361F3620362136223623362436253643
:1011F00016500E5C17500F581850105819501158AF
:101200001A5012581B5013581C5014581D50155882
:10121000D8A00DEF09F00FEF09F020EF09F01650FC
:101220000E5E17500F5A1850105A1950115A1A5072
:10123000125A1B50135A1C50145A1D50155A1E8016
:10124000D8901D321C321B321A3219321832173222
:101250001632262EEFEF08F01EC00EF01FC00FF062
:1012600020C010F021C011F022C012F023C013F0F2
:1012700024C014F025C015F01200165017101810D5
:1012800019101A101B101C101D10D8B44AEF09F0C9
:101290004CEF09F094EF09F0010E1E6E5AEF09F0C1
:1012A000D89016361736183619361A361B361C36AD
:1012B0001D361E2A1DAE5FEF09F061EF09F050EFF9
:1012C00009F016500E5C17500F581850105819504E
:1012D00011581A5012581B5013581C5014581D50B6
:1012E0001558D8A076EF09F078EF09F088EF09F0EB
:1012F00016500E5E17500F5A1850105A1950115AA6
:101300001A50125A1B50135A1C50145A1D50155A79
:10131000D8901D321C321B321A3219321832173251
:1013200016321E2E61EF09F00EC00EF00FC00FF046
:1013300010C010F011C011F012C012F013C013F061
:1013400014C014F015C015F01200000E7D6E000ED2
:101350007C6E000E796E000E7E6E000E7A6E000EB0
:101360007F6E000E7B6E000E806EFE0E856E8668B0
:101370008168DD0E876E82680F0E886E83688468D0
:101380009F0E0E01A76F9A69FD0EAF6FFB0EBC6F2B
:10139000B4699269000EA66F000EB36F000EAE6FB7
:1013A000000E996F000EBB6F000E916F000EA16FC3
:1013B000000EC06F000EAD6F000EB26F000E906F8A
:1013C000000EBA6F000E986F000EBF6F000EA06F78
:1013D000000EA56F8F6997699F69A469AC69B169AF
:1013E000B969BE698E6996699E69A369AB69B0697E
:1013F000B869BD691D0E1D6F1C0E6F6F100E726FE8
:10140000320E116F1B0E706F0E0E836F210E136F55
:101410001E0E1C6F12005FEC11F00009D8B413EF20
:101420000AF015EF0AF052EF0AF023EF0AF002EC8F
:1014300012F06EEF0AF0FEEC11F06EEF0AF0F6EC2F
:1014400011F06EEF0AF078C00CF079C00DF020EECC
:1014500069F002D836EF0AF00500FA6EDE50FD6E34
:10146000DE50FE6EDE50FF6EFA501200026E036A0E
:101470000350000AD8B43FEF0AF01FEF0AF0025001
:10148000010AD8B41FEF0AF0030AD8B417EF0AF024
:10149000010AD8B41BEF0AF0070AD8B41FEF0AF00C
:1014A0001FEF0AF00001899183C0D9FF84C0DAFFE1
:1014B000834B842BDF5006EC12F000018507D8A087
:1014C000860785518611D8A468EF0AF06AEF0AF002
:1014D0006DEF0AF0060E6EEF0AF0030E12008A0E90
:1014E0004724D96EDA6A000EDA22000EDF6E0E0192
:1014F000EEA57DEF0AF07FEF0AF094EF0AF08A0E76
:101500004724D96EDA6A000EDA220001DF8202D89F
:1015100094EF0AF00500FA6EE751FD6EE851FE6E99
:10152000E951FF6EFA5012000E01EEA39AEF0AF095
:101530009CEF0AF0B2EF0AF08A0E4724D96EDA6AFD
:10154000000EDA220001DF8402D8B2EF0AF00500B3
:10155000FA6E01013051FD6E3151FE6E3251FF6E57
:10156000FA5012008A0E4724D96EDA6A000EDA2287
:10157000DF50D8B4BEEF0AF0C0EF0AF0D0EF0AF0A7
:1015800002D8CEEF0AF00500FA6E01012D51FD6E72
:101590002E51FE6E2F51FF6EFA501200D2EF0AF05C
:1015A0008DEC10F01200A20E4D24D96EDA6A000EF6
:1015B000DA22000EDF6E0E01F5A5E1EF0AF0E3EF8F
:1015C0000AF0F8EF0AF0A20E4D24D96EDA6A000E86
:1015D000DA220001DF8202D8F8EF0AF00500FA6E85
:1015E000F651FD6EF751FE6EF851FF6EFA50120083
:1015F0000E01F5A3FEEF0AF000EF0BF015EF0BF074
:10160000A20E4D24D96EDA6A000EDA220001DF84C0
:1016100002D815EF0BF00500FA6EF351FD6EF45190
:10162000FE6EF551FF6EFA501200A20E4D24D96ED7
:10163000DA6A000EDA22DF50D8B421EF0BF023EF84
:101640000BF033EF0BF002D831EF0BF00500FA6E20
:101650000001F051FD6EF151FE6EF251FF6EFA5035
:10166000120035EF0BF0A2EC10F01200116E010E1B
:10167000126E000189B53FEF0BF041EF0BF08FEFD9
:101680000BF011C082F08993898589910E0E876FC6
:10169000010E816FF40E806F8987900E606F240EAB
:1016A000616F000E626F000E726F000E736F900E0E
:1016B000636F240E646F000E656F000E746F000E72
:1016C000756F900E666F240E676F000E686F000EC8
:1016D000766F000E776F900E696F240E6A6F000EA2
:1016E0006B6F000E786F000E796F8C0E6C6F240E8E
:1016F0006D6F000E6E6F000E7A6F000E7B6F520ED4
:101700000E6E240E0F6E000E106EC8EC11F026EC5B
:1017100012F0DDEC10F01AEC12F0000E126E125006
:10172000120001EC11F0F28EF28C54EC11F06AEC24
:1017300011F0950E196E390EDBEC0DF00101266FDC
:10174000960E196E390EDBEC0DF00101276FAD0E10
:10175000196E390EDBEC0DF001012B6FAE0E196E18
:10176000390EDBEC0DF001012C6F5A0E196E390E9B
:10177000DBEC0DF001012A6F310E206F0E0E216F90
:101780002AC122F1236BB7EC10F001012C512BC1BF
:1017900024F1256B24C125F1246B2411286F2551D8
:1017A000296F400E206F0E0E216F28C122F129C132
:1017B00023F1B7EC10F0210E0101246F760EE82E14
:1017C000FED7242FFCD700F099EF0BF0DDEF00F0EF
:1017D00032EC12F083C0D9FF84C0DAFFDF6E000163
:1017E000834B842B8507D8A0860785518611D8B4F2
:1017F000FCEF0BF0FEEF0BF003EF0CF00AEC12F035
:10180000050E3BEF0CF089870EEF0CF0EAEC11F0BF
:101810003BEF0CF0EEEC11F03BEF0CF072C00CF073
:1018200073C00DF002D81FEF0CF00500FA6E605186
:10183000FD6E6151FE6E6251FF6EFA501200016E34
:10184000026A0250000AD8B428EF0CF00AEF0CF03C
:101850000150010AD8B40AEF0CF0030AD8B406EF1D
:101860000CF0010AD8B406EF0CF0070AD8B40AEF5E
:101870000CF00AEF0CF0120012501310D8B443EF22
:101880000CF045EF0CF04EEF0CF012501310D8A4F2
:101890004CEF0CF04EEF0CF053EF0CF01050E1EC6D
:1018A00011F086EF0CF020EE09F01250D9261350FB
:1018B000DA22DE50DE10D8B460EF0CF062EF0CF0EC
:1018C0007DEF0CF020EE09F01250D9261350DA22E9
:1018D00010EE03F01250E1261350E222DE50E65CD7
:1018E000E650800A186EDE50800A1858D8B07BEF98
:1018F0000CF07DEF0CF086EF0CF020EE03F01250B0
:10190000D9261350DA22DE2A000EDD2212000E0143
:101910002D93DE0E0E6E140E0F6E000E106E89ECFF
:1019200011F00E012D91AC0E0E6E1E0E0F6E000EFC
:10193000106E82EC11F0080E0E01F06F900EEE6F3B
:10194000240EEF6F190EEC6F000EED6F940E0E6EFD
:10195000240E0F6E000E106E97EC11F0240E0E6E1A
:10196000240E0F6E000E106E90EC11F07C0E0E6EB9
:10197000240E0F6E000E106E9EEC11F0000E446EE1
:10198000000E496E000E486E080E0001FF6F000E3B
:10199000476E000E466E000E456E0E012D8312003E
:1019A0000E012C9FA60E0E6E150E0F6E000E106E01
:1019B000ACEC11F00E012C9D7C0E0E6E1F0E0F6E06
:1019C000000E106EA5EC11F0080E0E01F76F900ED0
:1019D000F56F240EF66F190EF36F000EF46F960E6E
:1019E0000E6E240E0F6E000E106EBAEC11F02C0E5F
:1019F0000E6E240E0F6E000E106EB3EC11F0820E00
:101A00000E6E240E0F6E000E106EC1EC11F0000E63
:101A10004A6E000E4F6E000E4E6E080E506E000E97
:101A20004D6E000E4C6E000E4B6E0E012C8F120090
:101A3000136E0E500F101010D8B421EF0DF023EFDD
:101A40000DF03FEF0DF01350030D600EF324D96E2F
:101A5000000EF420DA6E0EC0DEFF0FC0DEFF10C0F5
:101A6000DEFF1350020D720EF324D96E000EF42027
:101A7000DA6E11C0DEFF12C0DDFF59EF0DF013501A
:101A8000030D600EF324D96E000EF420DA6E900E72
:101A9000DE6E240EDE6E000EDE6E1350020D720E30
:101AA000F324D96E000EF420DA6E000EDE6E000E06
:101AB000DD6E1200066E015002100310D8B463EF01
:101AC0000DF065EF0DF081EF0DF00650030D600E87
:101AD000F324D96E000EF420DA6E01C0DEFF02C0DE
:101AE000DEFF03C0DEFF0650020D720EF324D96E36
:101AF000000EF420DA6E04C0DEFF05C0DDFF9BEFB0
:101B00000DF00650030D600EF324D96E000EF42084
:101B1000DA6E900EDE6E240EDE6E000EDE6E065065
:101B2000020D720EF324D96E000EF420DA6E000E50
:101B3000DE6E000EDD6E120000018987ADEF0DF044
:101B4000FAEC11F0DAEF0DF02FEC12F0030EDAEFF1
:101B50000DF0F6EC11F0DAEF0DF072C00CF073C07E
:101B60000DF002D8BEEF0DF00500FA6E6051FD6E6B
:101B70006151FE6E6251FF6EFA501200016E026AF0
:101B80000250000AD8B4C7EF0DF0A9EF0DF00150D4
:101B9000010AD8B4A9EF0DF0030AD8B4A0EF0DF0F4
:101BA000010AD8B4A0EF0DF0070AD8B4A4EF0DF0E5
:101BB000A9EF0DF012001A6E000E1B6E1A5036ECD3
:101BC0000BF00009D8B4E7EF0DF0E9EF0DF0DEEF10
:101BD0000DF0600E146E200E156E000E166E1B0EAC
:101BE000176E000E186E1EEC11F0190E0E6E000E20
:101BF0000F6E000E116E010E106ECBEC10F0000E89
:101C0000146E000E156E000E166E000E176E000E8E
:101C1000186E2CEC11F0E6EC11F077EC10F0E80601
:101C2000D8B415EF0EF017EF0EF00DEF0EF01B50BD
:101C3000120025BE1EEF0EF020EF0EF026EF0EF084
:101C400024C029F025C02AF02AEF0EF0000E2A6EDB
:101C5000000E296E000E286E000E276E3CEF0EF06F
:101C6000000E116E200E106E20C012F021C013F075
:101C70003CEC0CF0274A282A2950275C2850800A7F
:101C8000266E2A50800A2658D8A049EF0EF04BEF56
:101C90000EF030EF0EF022C019F023C01AF020C071
:101CA0001BF021C01CF07AEC0FF012001B6E1B50D1
:101CB00036EC0BF00009D8B460EF0EF062EF0EF0D6
:101CC00057EF0EF0000E146E200E156E000E166EFD
:101CD0001A0E176E000E186E1EEC11F0190E0E6E15
:101CE000000E0F6E000E116E010E106ECBEC10F098
:101CF000000E146E000E156E000E166E000E176E9E
:101D0000000E186E2CEC11F0E6EC11F077EC10F0F0
:101D1000E806D8B48EEF0EF090EF0EF086EF0EF0DE
:101D200012002CEC12F0000189A199EF0EF09BEF4C
:101D30000EF0A8EF0EF05FEC11F00009D8B4A3EF9D
:101D40000EF0A5EF0EF0A8EF0EF00F0E0001876F5A
:101D500000018751030D010EF324F66E0E0EF420E0
:101D6000F76EF86A000EF82202D8C4EF0EF00500F4
:101D7000FA6E0900F550FD6E0900F550FE6E09007F
:101D8000F550FF6EFA5012000001876F120000013B
:101D90008991020E886FD5EF0EF0FAEC11F0FCEF8E
:101DA0000EF0F6EC11F0FCEF0EF076C00CF077C000
:101DB0000DF020EE66F002D8E8EF0EF00500FA6EA6
:101DC000DE50FD6EDE50FE6EDE50FF6EFA501200E9
:101DD000016E026A0250000AD8B4F1EF0EF0D1EFA2
:101DE0000EF00150020AD8B4CDEF0EF0010AD8B4BB
:101DF000CDEF0EF0D1EF0EF012000E6E0001FF518C
:101E0000D8B405EF0FF007EF0FF0FEEF0EF00E0164
:101E10002DB10DEF0FF00FEF0FF013EF0FF00EC01D
:101E2000EBFE29EF0FF02D919A0E4924D96EDA6A54
:101E3000000EDA220EC0DFFF492A070E496423EFA5
:101E40000FF025EF0FF027EF0FF0000E496E0001A5
:101E5000FF070E012D811200DFC0E3F0E0C0E4F0C7
:101E600040EF0FF0DDC03DF0DEC03EF0E30E3F6E10
:101E7000000E406EE1C041F0E2C042F00BEC08F011
:101E8000E3C0F6FFE4C0F7FF000EF86E0800F5505F
:101E90000009D8A44EEF0FF050EF0FF032EF0FF023
:101EA000000E0001DE6F000EDD6F1200080E000153
:101EB000FF615DEF0FF05FEF0FF077EF0FF09A0E1D
:101EC0004824D96EDA6A000EDA22DF500E01EB6F79
:101ED000482A070E48646FEF0FF071EF0FF073EFB1
:101EE0000FF0000E486E0001FF2B79EF0FF00E018E
:101EF0002D911200000E1F6E000E1E6E8BEF0FF064
:101F00001DC010F0116A1BC012F01CC013F03CEC95
:101F10000CF01E4A1F2A1E501924D96E1F501A2079
:101F2000DA6EDF501D6E1D50D8A499EF0FF09BEFB5
:101F30000FF080EF0FF0120020EE02F00C50D926C7
:101F40000D50DA22DECF01F0DDCF02F00CC0D9FF58
:101F50000DC0DAFFDECF03F0DDCF04F0EFEC10F0C0
:101F6000000E076E000E086E000E096E000E0A6E5F
:101F7000000E0B6E3AEC11F0020E1200080E5060CB
:101F8000C4EF0FF0C6EF0FF0DDEF0FF0B20E4E24EE
:101F9000D96EDA6A000EDA22DF500E01F26F4E2A95
:101FA000070E4E64D6EF0FF0D8EF0FF0DAEF0FF018
:101FB000000E4E6E502ADFEF0FF00E012C9D120026
:101FC0000E6E010E0F6E000189B3E9EF0FF0EBEF1B
:101FD0000FF0FEEF0FF08983000E0F6E0E50D8B495
:101FE000F4EF0FF0F6EF0FF0FAEF0FF0010E876F3E
:101FF000FCEF0FF0020E876F1DEC12F00F50120075
:102000000CC001F00DC002F0000E046E010E036E54
:10201000EFEC10F0000E076E000E086E000E096E59
:10202000000E0A6E000E0B6E3AEC11F0040E120058
:102030000CC001F00DC002F0000E046E020E036E23
:10204000EFEC10F0000E076E000E086E000E096E29
:10205000000E0A6E000E0B6E3AEC11F0020E12002A
:102060000CC001F00DC002F0000E046E010E036EF4
:10207000EFEC10F0000E076E000E086E000E096EF9
:10208000000E0A6E000E0B6E3AEC11F0020E1200FA
:102090000CC001F00DC002F0000E046E020E036EC3
:1020A000EFEC10F0000E076E000E086E000E096EC9
:1020B000000E0A6E000E0B6E3AEC11F0040E1200C8
:1020C00001EE00F0200EEE6AE806FDE100EE60F0A1
:1020D000610EEE6AE806FDE100EE43F00D0EEE6AD9
:1020E000E806FDE151905192000191EF0BF0010ED5
:1020F0000E6E000189B37FEF10F081EF10F08BEFCF
:1021000010F08995826926EC12F020EC12F023EC95
:1021100012F088C00EF00E501200920E4724D96EB5
:10212000DA6A000EDA22EACEDFFF472A070E47649A
:102130009CEF10F09EEF10F0A0EF10F0000E476E35
:10214000452A1200AA0E4D24D96EDA6A000EDA2250
:10215000F1CEDFFF4D2A070E4D64B1EF10F0B3EF63
:1021600010F0B5EF10F0000E4D6E4B2A1200220E4B
:102170000001E56F010EE66F000EDD6F000EDE6FF1
:1021800020C1DFF021C1E0F0E50EE16F000EE26F4B
:102190002CEC0FF01200000189A7D1EF10F0D3EF63
:1021A00010F0DCEF10F00EC083F00FC084F010C010
:1021B00085F011C086F0899712000E01D9BBE3EFBC
:1021C00010F0E5EF10F0EEEF10F0000ED86F080EF3
:1021D000D96F000EDA6F030ED66FD98B1200000193
:1021E00089A7F5EF10F0F7EF10F000EF11F001C044
:1021F00083F002C084F003C085F004C086F08997A4
:10220000120044EC12F010EC11F054EC11F0A5ECBB
:1022100009F048EC11F0D0EC0CF087EC0CF0120057
:10222000000E0E014C6F000E4D6F000E4E6F000E33
:102230004F6F000E506F000E516F120014C00EF061
:1022400015C00FF016C010F017C011F018C012F032
:10225000000E18EC0DF0120014C00EF015C00FF0B7
:1022600016C010F017C011F018C012F0020E18ECD2
:102270000DF0120007C001F008C002F009C003F021
:102280000AC004F00BC005F0000E5AEC0DF012006D
:10229000620E0E01436F000E456F000E476F020E77
:1022A000496F000E486F1200000E0E01D86F080E25
:1022B000D96F000EDA6F030ED66FD99B12000E0194
:1022C000DABD65EF11F068EF11F0010E69EF11F062
:1022D000000E1200800E196E1B0E1A6E390E56EC8F
:1022E0000EF01200000189818251822506EC12F065
:1022F000030E120000018981D880823506EC12F0AD
:10230000050E12000EC0EDF00FC0EEF010C0EFF0A1
:1023100012000EC0EAF00FC0EBF010C0ECF012009B
:102320000EC030F10FC031F110C032F112000EC0FA
:10233000E7F00FC0E8F010C0E9F012000EC02DF178
:102340000FC02EF110C02FF112000EC0FCF00FC014
:10235000FDF010C0FEF012000EC0F9F00FC0FAF050
:1023600010C0FBF012000EC0F3F00FC0F4F010C06C
:10237000F5F012000EC0F6F00FC0F7F010C0F8F044
:1023800012000EC0F0F00FC0F1F010C0F2F0120019
:102390000EC0BAF00FC0BBF010C0BCF012000001BC
:1023A0008993000E886F0E0E12000001899135ECA2
:1023B00012F0040E120000018993000E886F0E0EB9
:1023C00012000F6E0F50FDEC0EF01200000EE0EC4C
:1023D0000FF012000EEC12F0090E12000EEC12F0CB
:1023E0000A0E12000AEC12F0050E120038EC12F080
:1023F000000E12003BEC12F0010E12003BEC12F04A
:10240000020E12003BEC12F0010E1200016E01C030
:10241000D5FE12000E01DA9BDA8912000E01DA8B6A
:10242000DA8912000E01EE99EE8912000E01F5997B
:10243000F58912000E012C8512000E01DA811200BE
:102440000E012C9512000E01D99B12000E0136953B
:10245000120091EC0EF012000E01369512000E01E2
:10246000368512000E01D55112000E01DA871200D6
:102470000E01DA8512000E01DA8312008DEC10F0E5
:102480001200A2EC10F01200F29A1200050E1200D7
:08249000010E120012001200FF
:020000040020DA
:10000000FF0FFF0FFF0FFF0FFF0FFF0FFF0FFF0F80
:020000040030CA
:0C000000ECFFFFFF9FFFFFFFFFFFFFFF73
:00000001FF
