:04000000DBEF00F042
:100008004682FACF10F0FBCF11F0D9CF12F0DACF39
:1000180013F0F3CF14F0F4CF15F0F6CF16F0F7CFB6
:1000280017F0F8CF18F0F5CF19F0F2AC1EEF00F08A
:1000380020EF00F0C5EF00F00E012CAD26EF00F028
:1000480028EF00F03EEF00F036AD2DEF00F02FEF77
:1000580000F03EEF00F002D83CEF00F00500FA6E29
:100068004150FD6E4250FE6E4350FF6EFA50120032
:10007800C5EF00F02CAF43EF00F045EF00F05CEF68
:1000880000F036AF4AEF00F04CEF00F05CEF00F004
:1000980002D85AEF00F00500FA6E01013851FD6EE2
:1000A8003951FE6E3A51FF6EFA501200C5EF00F05A
:1000B8002DA161EF00F063EF00F07AEF00F037A1B7
:1000C80068EF00F06AEF00F07AEF00F002D878EFFE
:1000D80000F00500FA6E01013551FD6E3651FE6ED5
:1000E8003751FF6EFA501200C5EF00F02DA37FEFD5
:1000F80000F081EF00F098EF00F037A386EF00F0F2
:1001080088EF00F098EF00F002D896EF00F00500B5
:10011800FA6E01013251FD6E3351FE6E3451FF6E9D
:10012800FA501200C5EF00F02CA79DEF00F09FEFEA
:1001380000F0B5EF00F036A7A4EF00F0A6EF00F04E
:10014800B5EF00F002D8B3EF00F00500FA6E2E50BC
:10015800FD6E2F50FE6E3050FF6EFA501200C5EF44
:1001680000F02CA5BAEF00F0BCEF00F0C5EF00F0EE
:1001780036A5C1EF00F0C3EF00F0C5EF00F0A6EF21
:1001880000F019C0F5FF18C0F8FF17C0F7FF16C038
:10019800F6FF15C0F4FF14C0F3FF13C0DAFF12C056
:1001A800D9FF11C0FBFF10C0FAFF4692110073EF90
:0201B8008DF0C8
:10FEC600008A1E01C81D01B81D01A80D01EA0F0117
:10FED6007E1E01CE1301D81E01D01E01C81E01C010
:10FEE6001E01B81E01B01E01A81E01721E01AA1530
:10FEF6000110C0F9005265636F7264656420546531
:10FF06006D70657261747572653A2025643B205484
:10FF1600656D7065726174757265204572726F7277
:10FF26003A2025643B200069693A2025643B205429
:10FF3600656D703A2025643B204C696768742025FE
:10FF4600753B200D005265636F72646564205465CD
:10FF56006D70657261747572653A2025643B200088
:10FF66004572726F7220436F64657320372C203898
:10FF76002C2026203921004572726F7220436F644F
:10FF8600657320372026203821004572726F722053
:10FF9600436F64657320372026203921004572722D
:10FFA6006F7220436F646573203820262039210044
:10FFB6004572726F7220436F646520372100457267
:10FFC600726F7220436F6465203821004572726F2C
:10FFD6007220436F6465203921005265766572731D
:10FFE600652121210D00466F7277617264210D0033
:09FFF60053544F5021210D00006D
:020000040001F9
:10000000C7C0DDF0C8C0DEF0C9C0DFF0CAC0E0F094
:10001000CBC0E1F0CCC0E2F0CDC0E3F0CEC0E4F064
:100020000001E4BF16EF80F019EF80F0010E1AEF27
:1000300080F0000EE56FE551D8B421EF80F023EF9A
:1000400080F033EF80F0E41FE31FE21FE11FE01FA9
:10005000DF1FDE1FDD6D000EDE23DF23E023E12343
:10006000E223E323E42334BE40EF80F0345006E182
:100070003304D8B03EEF80F040EF80F046EF80F0E0
:10008000000EDA6F010ED96F4AEF80F033C0D9F05D
:1000900034C0DAF031C0DBF032C0DCF0E551D8B466
:1000A00054EF80F056EF80F06DEF80F0DB07D8A0C2
:1000B000DC07E551D8A45FEF80F061EF80F067EFD7
:1000C00080F0000ED86F2B0ED76F6BEF80F0000E14
:1000D000D86F2D0ED76FD7C0E5F0000EE76F1F0E5B
:1000E000E66F000E01011F6FF3EF80F0E607D8A066
:1000F000E707000EE625D96E010EE721DA6EDDC0B6
:100100001AF0DEC01BF0DFC01CF0E0C01DF0E1C043
:100110001EF0E2C01FF0E3C020F0E4C021F00A0EA0
:10012000226E000E236E000E246E000E256E000E51
:10013000266E000E276E000E286E000E296E08EC4B
:1001400084F01AC0CFF01BC0D0F01CC0D1F01DC08D
:10015000D2F01EC0D3F01FC0D4F020C0D5F021C013
:10016000D6F0CFC02CF0D0C02DF094EC8CF02C50F9
:10017000300FDF6E0001D907D8A0DA07DB07D8A05F
:10018000DC07DDC01AF0DEC01BF0DFC01CF0E0C0F1
:100190001DF0E1C01EF0E2C01FF0E3C020F0E4C09B
:1001A00021F00A0E226E000E236E000E246E000E49
:1001B000256E000E266E000E276E000E286E000EB5
:1001C000296E43EC83F01AC0DDF01BC0DEF01CC0CA
:1001D000DFF01DC0E0F01EC0E1F01FC0E2F020C063
:1001E000E3F021C0E4F00001E7BFFFEF80F0E7514A
:1001F00008E1E605D8A0FFEF80F001EF81F01DEFE8
:1002000081F0DD51DE11DF11E011E111E211E311A6
:10021000E411D8A40EEF81F010EF81F076EF80F0BA
:10022000DABF1DEF81F0DA5106E1D905D8B01BEF36
:1002300081F01DEF81F076EF80F0E551D8B423EF27
:1002400081F025EF81F030EF81F0E607D8A0E707D5
:10025000000EE625D96E010EE721DA6EE5C0DFFF5C
:10026000C5C0BBF0C6C0BCF0000EE625BD6F010ED8
:10027000E721BE6FDBC0BFF0DCC0C0F0A8EC89F0A6
:100280001200EAC0D9FFEBC0DAFFDECFF6FFDDCF08
:10029000F7FF000EF86E0800F550250AD8A453EFBA
:1002A00081F055EF81F048EF82F0EAC0D9FFEBC052
:1002B000DAFFDE2A000EDD22000E326E000E316EF5
:1002C00031C0BAF033683468EAC0D9FFEBC0DAFF56
:1002D000DECFFAF0DDCFFBF0FAC0F6FFFBC0F7FF90
:1002E000000EF86E0800F550640AD8B47AEF81F079
:1002F0007CEF81F08CEF81F0FAC0F6FFFBC0F7FFD6
:10030000000EF86E0800F550690AD8A48AEF81F053
:100310008CEF81F0D0EF81F0ECC0D9FFEDC0DAFFB7
:10032000DFCFEEF0020EDE26DFCFEFF0000EDD2293
:10033000EEC0D9FFEFC0DAFFDECFF2F0DDCFF3F091
:100340000001000EF3BFFF0EF46FF56FF66FF76F4D
:10035000F86FF96F010EFA25EE6F000EFB21EF6FBB
:10036000EAC0D9FFEBC0DAFFEEC0DEFFEFC0DDFF71
:10037000E8C0C5F0E9C0C6F0F2C0C7F0F3C0C8F0ED
:10038000F4C0C9F0F5C0CAF0F6C0CBF0F7C0CCF0AD
:10039000F8C0CDF0F9C0CEF000EC80F05EEF82F056
:1003A000FAC0F6FFFBC0F7FF000EF86E0800F5502C
:1003B000750AD8A4DEEF81F0E0EF81F03FEF82F024
:1003C000ECC0D9FFEDC0DAFFDFCFEEF0020EDE2683
:1003D000DFCFEFF0000EDD22EEC0D9FFEFC0DAFF75
:1003E000DECFF0F0DDCFF1F0F0C0F2F0F1C0F3F0CD
:1003F0000001F46BF56BF66BF76BF86BF96B010EA4
:10040000FA25EE6F000EFB21EF6FEAC0D9FFEBC0BB
:10041000DAFFEEC0DEFFEFC0DDFF27EF82F0E8C0BD
:10042000C5F0E9C0C6F0F2C0C7F0F3C0C8F0F4C030
:10043000C9F0F5C0CAF0F6C0CBF0F7C0CCF0F8C0F8
:10044000CDF0F9C0CEF05FEC82F05EEF82F0FAC042
:10045000F6FFFBC0F7FF000EF86E0800F550EE6FD8
:10046000EF6BEF51000AD8B438EF82F03FEF82F023
:10047000EE51750AD8B40FEF82F03FEF82F0EAC078
:10048000D9FFEBC0DAFFDE2A000EDD225EEF82F03C
:10049000EAC0D9FFEBC0DAFFDECFF6FFDDCFF7FF12
:1004A000000EF86E0800F5501C6E1D6AE8C01EF0C4
:1004B000E9C01FF049EC88F03FEF82F0120034BE33
:1004C0006CEF82F0345006E13304D8B06AEF82F06A
:1004D0006CEF82F073EF82F0000E0001DA6F010E14
:1004E000D96F77EF82F033C0D9F034C0DAF031C081
:1004F000D7F032C0D8F0C7C0DBF0C8C0DCF0C9C04C
:10050000DDF0CAC0DEF0CBC0DFF0CCC0E0F0CDC083
:10051000E1F0CEC0E2F0000E0001E46F1F0EE36FC9
:10052000000E01011F6F0CEF83F0E307D8A0E40772
:10053000000EE325D96E010EE421DA6EDBC01AF05D
:10054000DCC01BF0DDC01CF0DEC01DF0DFC01EF003
:10055000E0C01FF0E1C020F0E2C021F00A0E226EE0
:10056000000E236E000E246E000E256E000E266E09
:10057000000E276E000E286E000E296EA2EC85F08C
:100580001AC0CFF01BC0D0F01CC0D1F01DC0D2F0FB
:100590001EC0D3F01FC0D4F020C0D5F021C0D6F0CB
:1005A0000001CF51300FDF6ED907D8A0DA07D70787
:1005B000D8A0D807DBC01AF0DCC01BF0DDC01CF0EF
:1005C000DEC01DF0DFC01EF0E0C01FF0E1C020F073
:1005D000E2C021F00A0E226E000E236E000E246E81
:1005E000000E256E000E266E000E276E000E286E81
:1005F000000E296EBAEC84F01AC0DBF01BC0DCF0F0
:100600001CC0DDF01DC0DEF01EC0DFF01FC0E0F03A
:1006100020C0E1F021C0E2F00001E351E411D8B4C0
:1006200014EF83F016EF83F032EF83F0DB51DC112F
:10063000DD11DE11DF11E011E111E211D8A423EF89
:1006400083F025EF83F095EF82F0DABF32EF83F08D
:10065000DA5106E1D905D8B030EF83F032EF83F0FC
:1006600095EF82F0C5C0BBF0C6C0BCF0000EE3251C
:10067000BD6F010EE421BE6FD7C0BFF0D8C0C0F07F
:10068000A8EC89F01200000E0001BC6F29BE4DEFEE
:1006900083F04BEF83F05FEF83F0291E281E271EA7
:1006A000261E251E241E231E226C000E2322242219
:1006B00025222622272228222922010EBC6F21BEB4
:1006C00066EF83F064EF83F078EF83F0211E201E45
:1006D0001F1E1E1E1D1E1C1E1B1E1A6C000E1B2222
:1006E0001C221D221E221F2220222122010EBC1BA1
:1006F00020EEBDF0070EDE6AE806FDE22250231070
:10070000241025102610271028102910D8B48BEF9C
:1007100083F08DEF83F0DFEF83F0010EBB6F9BEF73
:1007200083F0D890223623362436253626362736CF
:1007300028362936BB2B29AEA0EF83F0A2EF83F039
:1007400091EF83F0D890BD37BE37BF37C037C13780
:10075000C237C337C43722501A5C23501B58245069
:100760001C5825501D5826501E5827501F582850D9
:10077000205829502158D8A0C0EF83F0C2EF83F051
:10078000D3EF83F022501A5E23501B5A24501C5A78
:1007900025501D5A26501E5A27501F5A2850205A9D
:1007A0002950215ABD81D890293228322732263249
:1007B0002532243223322232BB2FA2EF83F0BC51E8
:1007C000D8B4E5EF83F0E7EF83F0F7EF83F0C41FD1
:1007D000C31FC21FC11FC01FBF1FBE1FBD6D000EA4
:1007E000BE23BF23C023C123C223C323C423BDC050
:1007F0001AF0BEC01BF0BFC01CF0C0C01DF0C1C0CD
:100800001EF0C2C01FF0C3C020F0C4C021F012000F
:10081000000E2B6E21BE11EF84F00FEF84F023EF5A
:1008200084F0211E201E1F1E1E1E1D1E1C1E1B1EB0
:100830001A6C000E1B221C221D221E221F222022A7
:100840002122010E2B6E29BE2AEF84F028EF84F0BE
:100850003AEF84F0291E281E271E261E251E241E60
:10086000231E226C000E2322242225222622272248
:100870002822292222502310241025102610271068
:1008800028102910D8B447EF84F049EF84F091EF95
:1008900084F0010E2A6E57EF84F0D890223623366A
:1008A0002436253626362736283629362A2A29AEF2
:1008B0005CEF84F05EEF84F04DEF84F022501A5C20
:1008C00023501B5824501C5825501D5826501E5884
:1008D00027501F582850205829502158D8A073EF6E
:1008E00084F075EF84F085EF84F022501A5E235077
:1008F0001B5A24501C5A25501D5A26501E5A275048
:100900001F5A2850205A2950215AD890293228326B
:100910002732263225322432233222322A2E5EEF2B
:1009200084F02B50D8B497EF84F099EF84F0A9EFBE
:1009300084F0211E201E1F1E1E1E1D1E1C1E1B1E9F
:100940001A6C000E1B221C221D221E221F22202296
:1009500021221AC01AF01BC01BF01CC01CF01DC0C5
:100960001DF01EC01EF01FC01FF020C020F021C0CF
:1009700021F0120020EEBBF0070EDE6AE806FDE271
:10098000225023102410251026102710281029107B
:10099000D8B4CDEF84F0CFEF84F022EF85F0010ED4
:1009A0000001C36FDEEF84F0D89022362336243660
:1009B00025362636273628362936C32B29AEE3EFCF
:1009C00084F0E5EF84F0D4EF84F0D890BB37BC37E7
:1009D000BD37BE37BF37C037C137C23722501A5C68
:1009E00023501B5824501C5825501D5826501E5863
:1009F00027501F582850205829502158D8A003EFBD
:100A000085F005EF85F016EF85F022501A5E235031
:100A10001B5A24501C5A25501D5A26501E5A275026
:100A20001F5A2850205A2950215ABB81D890293268
:100A30002832273226322532243223322232C32F63
:100A4000E5EF84F0BBC01AF0BCC01BF0BDC01CF0C9
:100A5000BEC01DF0BFC01EF0C0C01FF0C1C020F05E
:100A6000C2C021F01200000E7D6E000E7C6E000EE2
:100A7000796E000E7E6E000E7A6E000E7F6E000E96
:100A80007B6E000E806EFE0E856E86688168DD0EC0
:100A9000876E82680F0E886EF30E836E84689F0ED9
:100AA0000E01A76F9A69FD0EAF6FFB0EBC6FB469A4
:100AB0009269000EA66F000EB36F000EAE6F000EAF
:100AC000996F000EBB6F000E916F000EA16F000EAC
:100AD000C06F000EAD6F000EB26F000E906F000E73
:100AE000BA6F000E986F000EBF6F000EA06F000E61
:100AF000A56F8F6997699F69A469AC69B169B96984
:100B0000BE698E6996699E69A369AB69B069B86967
:100B1000BD69130E196F1D0E1D6F190E656F1C0E2A
:100B20006F6F100E726F1A0E646F320E116F1B0E04
:100B3000706F0E0E836F210E136F140E1A6F1E0E40
:100B40001C6F12002250231024102510261027108D
:100B500028102910D8B4AFEF85F0B1EF85F0F9EF88
:100B600085F0010E2A6EBFEF85F0D890223623362D
:100B70002436253626362736283629362A2A29AE1F
:100B8000C4EF85F0C6EF85F0B5EF85F022501A5C12
:100B900023501B5824501C5825501D5826501E58B1
:100BA00027501F582850205829502158D8A0DBEF33
:100BB00085F0DDEF85F0EDEF85F022501A5E2350D1
:100BC0001B5A24501C5A25501D5A26501E5A275075
:100BD0001F5A2850205A2950215AD8902932283299
:100BE0002732263225322432233222322A2EC6EFF1
:100BF00085F01AC01AF01BC01BF01CC01CF01DC0F1
:100C00001DF01EC01EF01FC01FF020C020F021C02C
:100C100021F01200A20E3E24D96EDA6A000EDA220A
:100C2000000EDF6E0E01EEA518EF86F01AEF86F0CB
:100C300030EF86F0A20E3E24D96EDA6A000EDA2278
:100C40000001DF8202D830EF86F00500FA6E010164
:100C50002F51FD6E3051FE6E3151FF6EFA50120071
:100C60000E01EEA336EF86F038EF86F04EEF86F0F9
:100C7000A20E3E24D96EDA6A000EDA220001DF8469
:100C800002D84EEF86F00500FA6E01012C51FD6E80
:100C90002D51FE6E2E51FF6EFA501200A20E3E2410
:100CA000D96EDA6A000EDA22DF50D8B45AEF86F035
:100CB0005CEF86F06CEF86F002D86AEF86F00500F4
:100CC000FA6E01012951FD6E2A51FE6E2B51FF6E05
:100CD000FA5012006EEF86F0B5EC8DF012008A0E1D
:100CE0003824D96EDA6A000EDA22000EDF6E0E01A9
:100CF000F5A57DEF86F07FEF86F095EF86F08A0E02
:100D00003824D96EDA6A000EDA220001DF8202D8B6
:100D100095EF86F00500FA6E01012651FD6E275110
:100D2000FE6E2851FF6EFA5012000E01F5A39BEFE4
:100D300086F09DEF86F0B3EF86F08A0E3824D96EE8
:100D4000DA6A000EDA220001DF8402D8B3EF86F0FF
:100D50000500FA6E01012351FD6E2451FE6E2551EE
:100D6000FF6EFA5012008A0E3824D96EDA6A000E2D
:100D7000DA22DF50D8B4BFEF86F0C1EF86F0D1EFB2
:100D800086F002D8CFEF86F00500FA6E01012051FF
:100D9000FD6E2151FE6E2251FF6EFA501200D3EF0C
:100DA00086F0CAEC8DF0120087EC8EF00009D8B402
:100DB000DCEF86F0DEEF86F01BEF87F0ECEF86F0DD
:100DC0006CEC8FF037EF87F068EC8FF037EF87F03F
:100DD00060EC8FF037EF87F078C00CF079C00DF041
:100DE00020EE69F002D8FFEF86F00500FA6EDE50C3
:100DF000FD6EDE50FE6EDE50FF6EFA5012000E6E7B
:100E00000F6A0F50000AD8B408EF87F0E8EF86F0B9
:100E10000E50010AD8B4E8EF86F0030AD8B4E0EF28
:100E200086F0010AD8B4E4EF86F0070AD8B4E8EFF8
:100E300086F0E8EF86F00001899183C0D9FF84C075
:100E4000DAFF834B842BDF5070EC8FF000018507B5
:100E5000D8A0860785518611D8A431EF87F033EFEB
:100E600087F036EF87F0060E37EF87F0030E12009B
:100E700027EC8EF0E80E1A6E190E1B6E010E1C6E1A
:100E800016EC8FF0AA0E1A6E190E1B6E010E1C6E58
:100E9000F3EC8EF0D4EC8EF0F28EF28C000E0101A9
:100EA000506F950E256E390E26EC8AF001014B6FBE
:100EB000960E256E390E26EC8AF001014C6FAD0EB0
:100EC000256E390E26EC8AF00101516FAE0E256EAB
:100ED000390E26EC8AF00101526F525151C149F18D
:100EE0004A6B49C14AF1496B49114E6F4A514F6FE4
:100EF000502B2D0E416FFF0E426F50C143F1446BDA
:100F00004DC145F1466B4EC147F14FC148F1A0ECD0
:100F10008DF0020E01014A6F450E496FA90EE82EB1
:100F2000FED7492FFCD74A2FFAD700D051EF87F0D0
:100F3000DBEF00F01D6E010E1E6E000189B5A3EF00
:100F400087F0A5EF87F0F3EF87F01DC082F089935B
:100F5000898589910E0E876F010E816FF40E806F67
:100F60008987640E606F1F0E616F010E626F000E45
:100F7000726F000E736F640E636F1F0E646F010E4D
:100F8000656F000E746F000E756F640E666F1F0E36
:100F9000676F010E686F000E766F000E776F640E3C
:100FA000696F1F0E6A6F010E6B6F000E786F000E77
:100FB000796F600E6C6F1F0E6D6F010E6E6F000EFD
:100FC0007A6F000E7B6F260E1A6E1F0E1B6E010EBF
:100FD0001C6E32EC8FF090EC8FF003EC8EF084EC12
:100FE0008FF0000E1E6E1E5012009CEC8FF083C01E
:100FF000D9FF84C0DAFFDF6E0001834B842B8507A5
:10100000D8A0860785518611D8B409EF88F00BEF78
:1010100088F010EF88F074EC8FF0050E48EF88F040
:1010200089871BEF88F054EC8FF048EF88F058EC7C
:101030008FF048EF88F072C00CF073C00DF002D84A
:101040002CEF88F00500FA6E6051FD6E6151FE6E66
:101050006251FF6EFA5012000E6E0F6A0F50000AB6
:10106000D8B435EF88F017EF88F00E50010AD8B4E5
:1010700017EF88F0030AD8B413EF88F0010AD8B448
:1010800013EF88F0070AD8B417EF88F017EF88F04D
:1010900012001E501F10D8B450EF88F052EF88F0A5
:1010A0005BEF88F01E501F10D8A459EF88F05BEF5B
:1010B00088F060EF88F01C504BEC8FF093EF88F0D5
:1010C00020EE09F01E50D9261F50DA22DE50DE1025
:1010D000D8B46DEF88F06FEF88F08AEF88F020EEDB
:1010E00009F01E50D9261F50DA2210EE03F01E50D0
:1010F000E1261F50E222DE50E65CE650800A246EB4
:10110000DE50800A2458D8B088EF88F08AEF88F043
:1011100093EF88F020EE03F01E50D9261F50DA22FC
:10112000DE2A000EDD2212000E012D93140E1A6E1F
:101130000C0E1B6E010E1C6EF3EC8EF00E012D9149
:10114000A00E1A6E180E1B6E010E1C6EECEC8EF0CB
:10115000080E0E01F06F900EEE6F240EEF6F190E59
:10116000EC6F000EED6F680E1A6E1F0E1B6E010EF7
:101170001C6E01EC8FF0F80E1A6E1E0E1B6E010E27
:101180001C6EFAEC8EF0500E1A6E1F0E1B6E010EC6
:101190001C6E08EC8FF0000E3B6E000E406E000ED1
:1011A0003F6E080E456E000E3E6E000E3D6E000E48
:1011B0003C6E0E012D8312000E012C9FDE0E1A6E66
:1011C0000C0E1B6E010E1C6E16EC8FF00E012C9D8A
:1011D000E40E1A6E180E1B6E010E1C6E0FEC8FF0D3
:1011E000080E0E01F76F900EF56F240EF66F190EB4
:1011F000F36F000EF46F6A0E1A6E1F0E1B6E010E57
:101200001C6E24EC8FF0000E1A6E1F0E1B6E010E6A
:101210001C6E1DEC8FF0560E1A6E1F0E1B6E010E0B
:101220001C6E2BEC8FF0000E356E000E3A6E000E29
:10123000396E080E446E000E386E000E376E000ECA
:10124000366E0E012C8F12001F6E1A501B101C10D0
:10125000D8B42DEF89F02FEF89F04BEF89F01F50B4
:10126000030D600EF324D96E000EF420DA6E1AC05E
:10127000DEFF1BC0DEFF1CC0DEFF1F50020D720E22
:10128000F324D96E000EF420DA6E1DC0DEFF1EC0FE
:10129000DDFF65EF89F01F50030D600EF324D96E5A
:1012A000000EF420DA6E640EDE6E1F0EDE6E010E8E
:1012B000DE6E1F50020D720EF324D96E000EF42064
:1012C000DA6E000EDE6E000EDD6E1200066E01504C
:1012D00002100310D8B46FEF89F071EF89F08DEF31
:1012E00089F00650030D600EF324D96E000EF42031
:1012F000DA6E01C0DEFF02C0DEFF03C0DEFF065073
:10130000020D720EF324D96E000EF420DA6E04C0C2
:10131000DEFF05C0DDFFA7EF89F00650030D600E6C
:10132000F324D96E000EF420DA6E640EDE6E1F0E0A
:10133000DE6E010EDE6E0650020D720EF324D96EC3
:10134000000EF420DA6E000EDE6E000EDD6E12006E
:101350000001C0BFAEEF89F0B0EF89F0B6EF89F0C1
:10136000BFC0C3F0C0C0C4F0BAEF89F0000EC46FB4
:10137000000EC36F000EC26F000EC16FCDEF89F07B
:10138000000E1D6E200E1C6EBBC01EF0BCC01FF0F8
:1013900049EC88F00001C14BC22BC351C15DC25161
:1013A000800A2C6EC451800A2C58D8A0DAEF89F03C
:1013B000DCEF89F0C0EF89F0BDC025F0BEC026F09B
:1013C000BBC027F0BCC028F00CEC8CF01200000170
:1013D0008987F8EF89F064EC8FF025EF8AF099ECBB
:1013E0008FF0030E25EF8AF060EC8FF025EF8AF086
:1013F00072C00CF073C00DF002D809EF8AF005003E
:10140000FA6E6051FD6E6151FE6E6251FF6EFA50D0
:1014100012000E6E0F6A0F50000AD8B412EF8AF055
:10142000F4EF89F00E50010AD8B4F4EF89F0030A02
:10143000D8B4EBEF89F0010AD8B4EBEF89F0070AD2
:10144000D8B4EFEF89F0F4EF89F01200266E000EA9
:10145000276E26509AEC87F00009D8B432EF8AF054
:1014600034EF8AF029EF8AF0860E206E1A0E216E74
:10147000010E226E270E236E000E246E46EC8EF0B7
:10148000250E1A6E000E1B6E000E1D6E010E1C6ED8
:10149000F1EC8DF0000E206E000E216E000E226E1B
:1014A000000E236E000E246E54EC8EF050EC8FF084
:1014B0008AEC8DF0E806D8B460EF8AF062EF8AF02B
:1014C00058EF8AF027501200276E27509AEC87F0C9
:1014D0000009D8B46EEF8AF070EF8AF065EF8AF0F9
:1014E000260E206E1A0E216E010E226E260E236E1F
:1014F000000E246E46EC8EF0250E1A6E000E1B6E4A
:10150000000E1D6E010E1C6EF1EC8DF0000E206EB3
:10151000000E216E000E226E000E236E000E246E51
:1015200054EC8EF050EC8FF08AEC8DF0E806D8B4D5
:101530009CEF8AF09EEF8AF094EF8AF0120096EC0E
:101540008FF0000189A1A7EF8AF0A9EF8AF0B6EF2A
:101550008AF087EC8EF00009D8B4B1EF8AF0B3EFCF
:101560008AF0B6EF8AF00F0E0001876F00018751F5
:10157000030DC70EF324F66EFE0EF420F76EF86A24
:10158000000EF82202D8D2EF8AF00500FA6E0900A8
:10159000F550FD6E0900F550FE6E0900F550FF6E26
:1015A000FA5012000001876F120000018991020EAB
:1015B000886FE3EF8AF064EC8FF00AEF8BF060EC59
:1015C0008FF00AEF8BF076C00CF077C00DF020EEB4
:1015D00066F002D8F6EF8AF00500FA6EDE50FD6E76
:1015E000DE50FE6EDE50FF6EFA5012000E6E0F6A75
:1015F0000F50000AD8B4FFEF8AF0DFEF8AF00E50E8
:10160000020AD8B4DBEF8AF0010AD8B4DBEF8AF023
:10161000DFEF8AF012001A6E4550D8B412EF8BF04B
:1016200014EF8BF00CEF8BF00E012DB11AEF8BF055
:101630001CEF8BF020EF8BF01AC0EBFE35EF8BF038
:101640002D91B20E4024D96EDA6A000EDA221AC049
:10165000DFFF402A070E406430EF8BF032EF8BF053
:1016600034EF8BF0000E406E45062D811200016EA6
:101670004450D8B43EEF8BF040EF8BF038EF8BF056
:101680000E012CBD46EF8BF048EF8BF04CEF8BF04A
:1016900001C0F2FE61EF8BF02C9D9A0E3A24D96EB8
:1016A000DA6A000EDA2201C0DFFF3A2A070E3A6436
:1016B0005CEF8BF05EEF8BF060EF8BF0000E3A6E1C
:1016C00044062C8D1200016E4550D8B46AEF8BF0A1
:1016D0006CEF8BF064EF8BF00E012DB172EF8BF09D
:1016E00074EF8BF078EF8BF001C0EBFE8DEF8BF099
:1016F0002D91B20E4024D96EDA6A000EDA2201C0B2
:10170000DFFF402A070E406488EF8BF08AEF8BF0F2
:101710008CEF8BF0000E406E45062D8112003DC10E
:10172000FCF03EC1FDF0A4EF8BF03BC1E8F03CC102
:10173000E9F0FC0E0001EA6F000EEB6F3FC1ECF028
:1017400040C1EDF041EC81F0FCC0F6FFFDC0F7FFB9
:10175000000EF86E0800F5500009D8A4B2EF8BF027
:10176000B4EF8BF095EF8BF0000E01013C6F000E93
:101770003B6F12003C50D8B4C0EF8BF0C2EF8BF03F
:10178000BAEF8BF0A20E3D24D96EDA6A000EDA228F
:10179000DF503B6EAA0E3D24D96EDA6A000EDA22C3
:1017A000DF50016E3D2A070E3D64D9EF8BF0DBEF71
:1017B0008BF0DDEF8BF0000E3D6E0E012D933C069D
:1017C0002D83015012003650D8B4E9EF8BF0EBEFC7
:1017D0008BF0E3EF8BF08A0E3724D96EDA6A000EB5
:1017E000DA22DF50356E920E3724D96EDA6A000E97
:1017F000DA22DF50016E372A070E376402EF8CF0D1
:1018000004EF8CF006EF8CF0000E376E0E012C9F6B
:1018100036062C8F01501200000E2B6E000E2A6E21
:101820001DEF8CF029C01CF01D6A27C01EF028C0D7
:101830001FF049EC88F02A4A2B2A2A502524D96E19
:101840002B502620DA6EDF50296E2950D8A42BEFBA
:101850008CF02DEF8CF012EF8CF0120020EE02F0E5
:101860000C50D9260D50DA22DECF01F0DDCF02F088
:101870000CC0D9FF0DC0DAFFDECF03F0DDCF04F0DE
:1018800015EC8EF0000E076E000E086E000E096E4D
:10189000000E0A6E000E0B6E62EC8EF0020E12004D
:1018A000080E456056EF8CF058EF8CF06FEF8CF01F
:1018B000B20E3F24D96EDA6A000EDA22DF500E0132
:1018C000EB6F3F2A070E3F6468EF8CF06AEF8CF0F5
:1018D0006CEF8CF0000E3F6E452A71EF8CF00E011C
:1018E0002D911200080E446078EF8CF07AEF8CF0A6
:1018F00091EF8CF09A0E3924D96EDA6A000EDA2252
:10190000DF500E01F26F392A070E39648AEF8CF02E
:101910008CEF8CF08EEF8CF0000E396E442A93EF32
:101920008CF00E012C9D12002DBEA1EF8CF02D50DD
:1019300006E12C04D8B09FEF8CF0A1EF8CF0B0EF53
:101940008CF02CC0BBF02DC0BCF00001BB1FBC1F35
:10195000BB4BBC2BBBC02CF0BCC02DF0B4EF8CF04B
:101960002CC02CF02DC02DF012001A6E010E1B6E33
:10197000000189B3BEEF8CF0C0EF8CF0D3EF8CF098
:101980008983000E1B6E1A50D8B4C9EF8CF0CBEFD0
:101990008CF0CFEF8CF0010E876FD1EF8CF0020E40
:1019A000876F87EC8FF01B5012000AEC86F092ECE8
:1019B0008EF00009D8B4DFEF8CF0E1EF8CF0F3EF9C
:1019C0008CF0BAEC8BF0026E9DEC8EF00009D8B46E
:1019D000ECEF8CF0EEEF8CF0F1EF8CF0025037EC86
:1019E0008BF0A8EC8EF012006FEC86F0C9EC8EF054
:1019F0000009D8B4FEEF8CF000EF8DF012EF8DF0FF
:101A0000E3EC8BF0026EB3EC8EF00009D8B40BEF70
:101A10008DF00DEF8DF010EF8DF0025063EC8BF038
:101A2000BEEC8EF012000CC001F00DC002F0000EF2
:101A3000046E010E036E15EC8EF0000E076E000EA4
:101A4000086E000E096E000E0A6E000E0B6E62EC40
:101A50008EF0040E12000CC001F00DC002F0000E5A
:101A6000046E020E036E15EC8EF0000E076E000E73
:101A7000086E000E096E000E0A6E000E0B6E62EC10
:101A80008EF0020E12000CC001F00DC002F0000E2C
:101A9000046E010E036E15EC8EF0000E076E000E44
:101AA000086E000E096E000E0A6E000E0B6E62ECE0
:101AB0008EF0020E12000CC001F00DC002F0000EFC
:101AC000046E020E036E15EC8EF0000E076E000E13
:101AD000086E000E096E000E0A6E000E0B6E62ECB0
:101AE0008EF0040E120001EE00F0200EEE6AE80601
:101AF000FDE100EE60F05B0EEE6AE806FDE100EE4F
:101B00002EF0130EEE6AE806FDE1469046920001C3
:101B100038EF87F0010E1A6E000189B392EF8DF055
:101B200094EF8DF09EEF8DF08995826990EC8FF0A7
:101B30008AEC8FF08DEC8FF088C01AF01A501200EA
:101B4000430E0001FE6F010EFF6F000E01013B6F9F
:101B5000000E3C6F41C13DF142C13EF1FE0E3F6FB0
:101B6000000E406F8FEC8BF01200AA0E3E24D96E4F
:101B7000DA6A000EDA22EACEDFFF3E2A070E3E6462
:101B8000C4EF8DF0C6EF8DF0C8EF8DF0000E3E6E05
:101B90003C2A1200920E3824D96EDA6A000EDA223C
:101BA000F1CEDFFF382A070E3864D9EF8DF0DBEF76
:101BB0008DF0DDEF8DF0000E386E362A1200130E18
:101BC0000E01196F140E1A6F190E656F1A0E646FDD
:101BD000C00E946E100E956EF90E926E8396959AC5
:101BE0001200000189A7F7EF8DF0F9EF8DF002EFF9
:101BF0008EF01AC083F01BC084F01CC085F01DC09D
:101C000086F0899712000E01D9BB09EF8EF00BEF19
:101C10008EF014EF8EF0000ED86F080ED96F000E04
:101C2000DA6F030ED66FD98B1200000189A71BEF64
:101C30008EF01DEF8EF026EF8EF001C083F002C013
:101C400084F003C085F004C086F089971200AEECE2
:101C50008FF038EC8EF0DFEC8DF07CEC8EF033EC16
:101C600085F070EC8EF0DCEC88F094EC88F01200DB
:101C7000000E0E014C6F000E4D6F000E4E6F000EE9
:101C80004F6F000E506F000E516F120020C01AF0FF
:101C900021C01BF022C01CF023C01DF024C01EF088
:101CA000000E24EC89F0120020C01AF021C01BF0B5
:101CB00022C01CF023C01DF024C01EF0020E24EC34
:101CC00089F0120007C001F008C002F009C003F05B
:101CD0000AC004F00BC005F0000E66EC89F012009B
:101CE000620E0E01436F000E456F000E476F020E2D
:101CF000496F000E486F1200000E0E01D86F080EDB
:101D0000D96F000EDA6F030ED66FD99B12000E0149
:101D1000DABD8DEF8EF090EF8EF0010E91EF8EF028
:101D2000000E12003C50D8A498EF8EF09BEF8EF07E
:101D3000010E9CEF8EF0000E12004450D8A4A3EFC9
:101D40008EF0A6EF8EF0010EA7EF8EF0000E1200BF
:101D50000E01F6B3AEEF8EF0B1EF8EF0010EB2EFE2
:101D60008EF0000E12004550D8A4B9EF8EF0BCEFF3
:101D70008EF0010EBDEF8EF0000E12000E01EFB3DB
:101D8000C4EF8EF0C7EF8EF0010EC8EF8EF0000E9C
:101D900012003650D8A4CFEF8EF0D2EF8EF0010EA5
:101DA000D3EF8EF0000E1200800E256E1B0E266EF5
:101DB000390E64EC8AF0120000018981825182257B
:101DC00070EC8FF0030E120000018981D8808235FB
:101DD00070EC8FF0050E12001AC035F11BC036F101
:101DE0001CC037F112001AC032F11BC033F11CC005
:101DF00034F112001AC02CF11BC02DF11CC02EF1C1
:101E000012001AC02FF11BC030F11CC031F11200BA
:101E10001AC029F11BC02AF11CC02BF112001AC0F4
:101E200041F01BC042F01CC043F012001AC038F150
:101E30001BC039F11CC03AF112001AC023F11BC0BB
:101E400024F11CC025F112001AC026F11BC027F195
:101E50001CC028F112001AC020F11BC021F11CC0C7
:101E600022F112001AC02EF01BC02FF01CC030F05F
:101E7000120000018993000E886F0E0E12000001FF
:101E800089919FEC8FF0040E120000018993000EDF
:101E9000886F0E0E12001B6E1B500BEC8BF01200A5
:101EA000000EB5EC8CF0120078EC8FF0090E1200E9
:101EB00078EC8FF00A0E120074EC8FF0050E120011
:101EC000A2EC8FF0000E1200A5EC8FF0010E1200B4
:101ED000A5EC8FF0020E1200A5EC8FF0010E12009F
:101EE000016E01C0D5FE12000E01DA9BDA891200E4
:101EF0000E01DA8BDA8912000E01EE99EE891200DA
:101F00000E01F599F58912000E012C8512000E01C3
:101F1000DA8112000E012C9512000E01D99B1200DD
:101F20000E01369512009FEC8AF012000E013695D4
:101F300012000E01368512000E01D55112000E015D
:101F4000DA8712000E01DA8512000E01DA83120020
:101F5000B5EC8DF01200CAEC8DF01200F29A12006E
:0C1F6000050E1200010E1200120012000B
:020000040020DA
:10000000FF0FFF0FFF0FFF0FFF0FFF0FFF0FFF0F80
:020000040030CA
:0C000000ECFFFFFF9FFFFFFFFFFFFFFF73
:00000001FF
